:020000040000fa
:10000000f0ff0220797700005f7e00006b8b00001c
:10001000b3920000139a0000439c0000000000000f
:10002000000000000000000000000000e37b000072
:10003000638f000000000000e37b0000e37b000012
:10004000e37b0000e37b0000e37b0000e37b000038
:10005000e37b0000e37b0000e37b0000e37b000028
:10006000e37b0000e37b0000e37b0000e37b000018
:10007000e37b0000e37b0000e37b0000e37b000008
:10008000e37b0000e37b0000e37b0000e37b0000f8
:10009000e37b0000e37b0000e37b0000e37b0000e8
:1000a000e37b0000e37b0000e37b0000e37b0000d8
:1000b000e37b0000e37b0000e37b0000e37b0000c8
:1000c000e37b0000e37b0000e37b0000e37b0000b8
:1000d000e37b0000e37b0000e37b0000e37b0000a8
:1000e000e37b0000e37b0000000000000000000054
:1000f00000000000e37b0000e37b0000e37b0000e6
:10010000e37b0000e37b0000e37b0000e37b000077
:10011000e37b0000e37b0000e37b0000e37b000067
:10012000e37b0000e37b0000e37b0000e37b000057
:10013000e37b0000e37b0000e37b0000e37b000047
:10014000e37b0000e37b0000e37b0000e37b000037
:10015000e37b0000e37b00000000000000000000e3
:10016000000000000000000000000000000000008f
:10017000000000000000000000000000000000007f
:10018000399b0000499b0000599b0000699b0000bf
:1001900000000000e37b0000e37b0000e37b000045
:1001a000e37b0000e37b0000e37b0000e37b0000d7
:1001b000e37b0000e37b0000e37b0000e37b0000c7
:1001c000e37b0000e37b0000e37b0000e37b0000b7
:1001d000e37b0000e37b0000e37b0000e37b0000a7
:1001e000e37b0000e37b0000e37b000081910000e3
:1001f000e37b0000e37b0000e37b0000e37b000087
:10020000e37b00000000000000000000e37b000032
:10021000e37b0000e37b0000e37b0000e37b000066
:10022000e37b0000e37b0000e37b0000e37b000056
:10023000e37b0000e37b0000e37b0000e37b000046
:10024000e37b0000e37b0000e37b0000e37b000036
:10025000e37b0000e37b0000e37b0000e37b000026
:020000040000fa
:10026000f8b500bff8bc08bc9e467047918b0000f3
:10027000f8b500bff8bc08bc9e4670476d8b000007
:020000040000fa
:08028000ea2b00000100000060
:020000040000fa
:100288000378002b00f0e283f0b587b00d460446f2
:1002980001ebc100b04901ebc00194f9e63001332c
:1002a8000f2b00f2ce83dfe813f0c30310003d00ec
:1002b80052006a00e60016015d01c301db01f0018e
:1002c8002f026902ab02e502490305ebc503a24a06
:1002d80002ebc3035b7c002b40f0b3831346ea00b8
:1002e800511903ebc101a06c486401254d74e36efc
:1002f8001b6894f87110606e984784f8e650d4f83b
:10030800f40020b109f03cfc0023c4f8f430d4f820
:100318008800002800f0958309f032fc0023c4f817
:1003280088308ee3e36e5b6894f87110606e9847ce
:10033800002800f08683e36e1b6994f87110606ee4
:10034800984784f87200022384f8e63079e3824ef5
:10035800ef007a1906ebc202002382f843306422c8
:100368007e4808f0d9f93d4406ebc506f063b0f1c4
:10037800ff3f00f06683032384f8e63061e305eb72
:10038800c503754a02ebc30393f84330002b00f012
:10039800588305ebc50302ebc3034ff0ff32da6362
:1003a80094f87030a26e94f87210049108210391a9
:1003b80000210291019194f871000090d6690a46d3
:1003c800206eb0476065b0f1ff3f41d0802384f8cc
:1003d800ce30062384f8cf30002384f8d0300122b1
:1003e80084f8d12084f8d23084f8d330082284f8f5
:1003f800d42084f8d5300122227104f173022261dd
:1004080004f1ce02e260082262612362042384f8c8
:10041800e630a36edb6804f10c019847002800f071
:100428001083ff2384f8e630a36e1b6a606d98473b
:100438004b4b1b6823b14a4a526800210120984758
:1004480005ebc505444b03ebc50300225a74f8e2db
:10045800ff2384f8e630424b1b6823b1404a5268b8
:1004680000210120984705ebc5053b4b03ebc5036d
:1004780000225a74e5e294f91830fbb1002b80f29f
:10048800e082a36e1b6a606d984705ebc505324b89
:1004980003ebc50300225a7494f8e730022b14d9f1
:1004a800ff2384f8e6302e4b1b68002b00f0c9822e
:1004b8002b4a5268002101209847c2e2052384f89c
:1004c800e630002384f8e730bbe2013384f8e730f4
:1004d80084f8e620b5e2084609f036f984f85c00ad
:1004e800002384f8ce30052284f8cf20a4f8d00069
:1004f80084f8d23084f8d33084f8d43084f8d530f6
:1005080004f18c02226104f1ce02e260636123628d
:10051800062384f8e630a36edb6804f10c01606df5
:100528009847002800f08d82ff2384f8e630a36ef8
:100538001b6a606d98470a4b1b6823b1084a5268ca
:1005480000210120984705ebc505034b03ebc503c4
:1005580000225a7475e200bf441e00201d99000055
:10056800941f002094f91830fbb1002b80f26982a7
:10057800a36e1b6a606d984705ebc505ba4b03eb84
:10058800c50300225a7494f8e730022b46d9ff239a
:1005980084f8e630b54b1b68002b00f05282b34a52
:1005a80052680021012098474be2a36e1b6a606dd8
:1005b8009847002284f8e72094f8703094f85c108b
:1005c800a06e94f87260049694f87a60039602928a
:1005d800019294f871600096c669206eb047606514
:1005e800b0f1ff3f03d0072384f8e63029e2a06c7e
:1005f80008f0caf9ff2384f8e6309c4b1b683bb12e
:1006080005ebc505984b03ebc50300225a7418e2a5
:10061800964a5268194601209847f1e7013384f851
:10062800e730a06c08f0b0f9002384f8e63008e25f
:100638008d4eef007a1906ebc202002382f8433090
:1006480032228b4808f068f83d4406ebc506f06393
:10065800b0f1ff3f00f0f581082384f8e630f0e1bf
:1006680005ebc503804a02ebc30393f84330002b24
:1006780000f0e78105ebc50502ebc5054ff0ff3338
:10068800eb63092384f8e630dbe194f873208023d8
:1006980084f8ce30062384f8cf30002384f8d03095
:1006a800012184f8d11084f8d23084f8d330a4f82a
:1006b800d42004f17301216104f1ce01e16062618b
:1006c80023620a2384f8e630a36edb6804f10c0188
:1006d800606d9847002800f0b481ff2384f8e63065
:1006e800a36e1b6a606d9847604b1b6823b15f4a15
:1006f800526800210120984705ebc5055a4b03ebca
:10070800c50300225a749ce194f91830fbb1002b00
:1007180080f29781a36e1b6a606d984705ebc5054b
:10072800514b03ebc50300225a7494f8e730022baf
:100738001ad9ff2384f8e6304c4b1b68002b00f0d5
:1007480080814a4a526800210120984779e10b23a9
:1007580084f8e630002384f8e73094f8842084f89d
:10076800cc2084f8e8306ce1013384f8e730a06ce1
:1007780008f00af9002384f8e63062e194f8e830da
:10078800802284f8ce20062284f8cf2003f5007357
:10079800a4f8d030002384f8d23084f8d33009226a
:1007a80084f8d42084f8d53004f18c02226104f155
:1007b800ce02e2600922626123620c2384f8e630eb
:1007c800a36edb6804f10c01606d9847002800f007
:1007d8003881ff2384f8e630a36e1b6a606d984762
:1007e800224b1b6823b1214a5268002101209847f7
:1007f80005ebc5051c4b03ebc50300225a7420e129
:1008080094f91830fbb1002b80f21b81a36e1b6a90
:10081800606d984705ebc505134b03ebc503002234
:100828005a7494f8e730022b14d9ff2384f8e63081
:100838000e4b1b68002b00f004810c4a5268002103
:1008480001209847fde00d2384f8e630002384f862
:10085800e730f6e0013384f8e73084f8e620a06c4e
:1008680008f092f8ede000bf441e0020941f00201d
:100878001d990000b4f88e70beb2304609f078f9c0
:10088800c4f88800002842d094f8e830802284f820
:10089800ce20062284f8cf2003f50073a4f8d030c8
:1008a800002384f8d23084f8d330a4f8d4702061bf
:1008b80004f1ce02e260666123620e2384f8e6301a
:1008c800a36edb6804f10c01606d9847002800f006
:1008d800b880ff2384f8e630a36e1b6a606d9847e2
:1008e800d4f8880009f04cf90023c4f88830584b34
:1008f8001b6823b1564a526800210120984705eb2e
:10090800c505544b03ebc50300225a7499e0ff2335
:1009180084f8e630a36e1b6a606d98474c4b1b68e1
:1009280023b14b4a526800210120984705ebc505c1
:10093800484b03ebc50300225a7482e094f918303f
:100948001bb3002b7ddaa36e1b6a606d984705eb1d
:10095800c505404b03ebc50500266e74d4f8880026
:1009680009f00ef9c4f8886094f8e730022b56d9dc
:10097800ff2384f8e630364b1b68002b61d0344add
:1009880052680021012098475be084f8e730d4f8ea
:100998008860304606f098f818b33379052b20d8cc
:1009a80094f8e8300133dbb284f8e83094f8cc20ce
:1009b8009a4212d80f2384f8e6300022227105eb00
:1009c800c505244b03ebc5035a74d4f8880009f015
:1009d800d7f80023c4f8883033e00b2384f8e630d6
:1009e800f3e7ff2384f8e630a36e1b6a606d98472f
:1009f800d4f8880009f0c4f80023c4f88830144bf0
:100a08001b6823b1124a526800210120984705eb60
:100a1800c505104b03ebc50300225a7411e00133de
:100a280084f8e73084f8e660a06c07f0adff08e0d2
:100a380009f01cf84ff0ff33636520b9fe2384f8f2
:100a4800e63007b0f0bd09f029f9f7e7704700bfb5
:080a5800941f0020441e002041
:020000040000fa
:100a60002de9f04f87b080460e46036801930b785e
:100a70002f2b09d05c2b07d0019b1b698360337837
:100a80001f2b0dd9b34668e233461e4613f8012bdf
:100a90002f2afad05c2af8d00023c8f80830eee7f5
:100aa000802388f82b300021404606f0fef982466c
:100ab00007e040f2b51108f0bbfb014628b94ff042
:100ac000060a504607b0bde8f08f1f280ed92f2820
:100ad0000ed05c280cd07f281bd9ff2c27d00134e6
:100ae00026f8021f1bf8010b0028e2d1042608e0bb
:100af0005b469b4613f8012b2f2afad05c2af8d0cc
:100b00000026012c16d0022c2ad084b305eb440217
:100b100031e02228d3d02a23b04a0d32984204d0a3
:100b200012f8013f002bf9d1d7e7002bd5d04ff0b9
:100b3000060ac6e72b882e2be8d1002325f81430af
:100b400008f11f029c428cbf2e21202102f8011fb8
:100b500001330b2bf6d146f0200688f82b6092e08b
:100b60006b882e2bd2d12b882e2bcfd1e5e7ab462d
:100b700035e0013c32d032f8023d202bf9d02e2b4b
:100b8000f7d06000002325f81430002ccfd02a883d
:100b9000202a28d12946013331f8022f202afad001
:100ba00013b346f00306811e6a18695a2e2905d030
:100bb000013c03d032f8021d2e29f9d108f12b0097
:100bc00008f12002202102f8011b8242fbd14ff0e4
:100bd000080a4ff00009cdf800900de0ab46002365
:100be000abf800306be700232e2adcd1d9e7a7420f
:100bf0000ad046f003063b465f1c35f81300f8b1f7
:100c00002028f6d02e28f2d0d1450fd2a74200f0ee
:100c1000aa817f2856d8ff2876d90af1ff33994553
:100c20006bd346f003063b46d146e5e7baf10b0f1e
:100c30003cd0a74200f09b8146f0030640f297812a
:100c400098f82030e52b39d0baf1080f00f08380f6
:100c5000009a02f00c030c2b00f0828002f00303d8
:100c6000032b7dd016f0020f0bd1009b13f0010f68
:100c700018bf46f01006009b13f0040f18bf46f093
:100c8000080688f82b60d8f8003000930021404611
:100c900006f00bf98246002840f035814ff0ff3313
:100ca000c8f82c30ff273c46994667e046f003061b
:100cb00098f82030e52bcbd14ff00b0a052388f8ac
:100cc0002030c1e746f0020640f2b51107f0e8fe19
:100cd00010f0800f03d000f07f00414b185cff281c
:100ce0009bd888b946f003064b465f2003f1010903
:100cf000434483f820003b467ee709f10103c144e9
:100d0000020a89f82020f1e72b28ebd02c23334a64
:100d1000193299b2814219d012f8013f002bf8d153
:100d2000a0f141039bb2192b03d8009b43f00203af
:100d30000093a0f161039bb2192b0ad8009b43f0ea
:100d400001030093203880b24b46cfe7002bc9d176
:100d5000e6e74b46cae7009b9b00dbb2009377e7d0
:100d600046f002067ee7c8f82c90ff24002140469a
:100d700006f0f4fe8246002840f0c580d8f818102e
:100d8000009808f055f98246002840f0bc80d8f859
:100d90001c502b78002b00f0c880ee7a06f03f0242
:100da00088f80620e52bded016f0080f1ad00f2a9f
:100db000d9d198f82b2012f0400fd7d113f0400f63
:100dc00036d06f7b03f0bf04d8f81030c8f82c3051
:100dd0006b7bbb4231d0ff24c8e700bfd095000039
:100de000687c00000f2ae4d084b905f10b012a4683
:100df0002346dc0144ea530412f8013b53fa84f41d
:100e0000e3b28a42f5d19f4200f0928098f82b30ed
:100e100013f0010f08d10b2208f12001284608f039
:100e2000b3fc002800f08480c8f82c90ff249de7d4
:100e3000a34218bfff2499d1cae7ea7eab7e53eaea
:100e4000022356d1009bdb6804932b7803f03f0309
:100e5000013b03eb430203eb8203dff82ca10122e9
:100e600005940297cdf80c80984606e04ff6ff7384
:100e70009c4244d1434b9a451bd01af8013be918d8
:100e80004978ec5c44ea0124002aefd0b8f1ff0f66
:100e90002cd8204605f080fe074608f10106049b89
:100ea00033f8180005f078fe874224d12246b04678
:100eb000e0e74146059c029fddf80c802b7813f09b
:100ec000400f04d01ab1049b33f811308bb9013ca8
:100ed000e4b24be703f00403002b14bf4ff0040a05
:100ee0004ff0050aede54ff0050aeae5029fddf84f
:100ef0000c80ff243ae7029fddf80c80f9e7029f9f
:100f0000ddf80c80f5e798f82b30baf1040f7ff488
:100f1000d8ad13f0200fddd013f0040f1dd08023c7
:100f200088f82b304ff0000acbe598f82b30f0e72b
:100f300098f82b3013f0040f7ff4c3ad16f0100fa8
:100f4000d1d0019800f13001d8f81030c3f3080374
:100f5000194408f02dfbc8f80800d8f80030dd6807
:100f6000ae1e0024bee5baf10b0f3ff49fae009b0e
:100f70009b00dbb2009323464ff00b0a4ff00809a9
:0c0f80003ae600bf259b0000189b000013
:020000040000fa
:100f8c00f0b585b00446c823c24a03fb002393f98d
:100f9c000830013b0d2b00f25181dfe813f00e00fd
:100fac00380047007100cc00f50034015701860170
:100fbc00af01fe01130226024d02c82505fb00f508
:100fcc0005f13506b34f3e44304608f012fd7a1950
:100fdc00012382f83430002382f84530d2f8b03047
:100fec00d06834353d440395ab4a0292802201927d
:100ffc00242200920622314602f046ff032840f0dc
:10100c001d81c82303fb04740223237216e1c82339
:10101c00a04a03fb002393f84530002b00f00e810f
:10102c00c82303fb00240323237207e1c82505fb17
:10103c0000f505f13506974f3e44304608f0acfb01
:10104c007a19012382f83430002382f84530d2f823
:10105c00b030d06834353d4403958f4a02928022db
:10106c000192082200920a22314602f00dff032859
:10107c0040f0e480c82303fb047404232372dde0f6
:10108c00c823844a03fb002393f84530002b4ad035
:10109c00c82303fb002393f84630002b3ad11046ab
:1010ac00c82303fb04f41319d3f8b050182283f8a7
:1010bc007c200122c3f88020c3f88420c3f8882048
:1010cc00aa796979090441ea0221ea7911432a795a
:1010dc0041ea0261c3f89010ae786a78120442ead1
:1010ec000622ee7832432d7842ea05620132c3f8cb
:1010fc009420c3f89810c3f89c20c3f8a010d3f820
:10110c009420c3f8a42090342044c3f88c0005220a
:10111c001a7293e0c8235f4a03fb00240323e37293
:10112c00092323728ae0c8235a4a03fb0024e0688f
:10113c0001f0a8fb82e0c82505fb00f505f135069a
:10114c00544f3e44304608f0a7fb7a19012382f82d
:10115c003430002382f84530d2f8b030d0683435c2
:10116c003d4403954c4a029280220192c022009287
:10117c000622314602f088fe03285fd1c82303fb08
:10118c0004740623237259e0c823424a03fb00234c
:10119c0093f845307bb3c82303fb002393f8463008
:1011ac0003bbc82303fb0023d3f8b0305a781ab919
:1011bc0093f90230002b0ddbc823364a03fb0423c2
:1011cc00002283f8b420c823324a03fb04240723eb
:1011dc00237233e0c8232f4a03fb0023012283f838
:1011ec00b420f0e7c8232b4a03fb00240523e37249
:1011fc000923237222e0c823264a03fb0024e0685b
:10120c0001f040fb1ae0c825224b05fb00350123f9
:10121c00224a81b2e86807f023fd6860204b1b78f6
:10122c0073b9c8231b4a03fb04240823237201232c
:10123c00a37284f8b5300023c4f8c43005b0f0bdf7
:10124c00174b5a68996820469047eae7c823114a19
:10125c0003fb002393f8b63023b3c82303fb00230e
:10126c00d3f8a85045b1c82303fb0023d3f8ac2016
:10127c004ff0ff310220a847c823064a03fb042481
:10128c00606808f0b3fc4ff0ff33636001232372f6
:10129c00d4e700bfb0000020c99a0000041f002052
:1012ac007801002002f088ffc8e7c82505fb00f58f
:1012bc0005f13506714f3e44304608f090fb7a1923
:1012cc00012382f83430002382f84530d2f8b03054
:1012dc00d06834353d440395694a029280220192cc
:1012ec00122200920622314602f0cefd0328a5d12f
:1012fc00c82303fb04740a2323729fe7c8235f4aa5
:10130c0003fb002393f84530002b3ed0c82303fb8e
:10131c00002393f846308bbbc82303fb002393f9bf
:10132c000b30052b1ad0c823544a03fb0023d3f8e7
:10133c00b0309b7803f00f02062a18d013f00d0f73
:10134c0015d0032a7ff47aafc8234c4a03fb002440
:10135c00012384f8b630082323726fe7c82303fbfc
:10136c000024002384f8b4300723237266e7c823d3
:10137c00424a03fb04240d2323725fe7c8233f4a30
:10138c0003fb0024ff23237258e7c8233b4a03fbcb
:10139c000024e06801f076fa50e7c825374b05fbce
:1013ac000035002385f8c03064222946354807f003
:1013bc00b1f9c5f8bc00b0f1ff3f3ff43faf0c23cf
:1013cc002b723be7c8232d4a03fb002393f8c03054
:1013dc00002b3ff433afc82303fb00240d232372ef
:1013ec004ff0ff33c4f8bc3028e7c82505fb00f5e7
:1013fc0005f13506214f3e44304608f067fb7a195b
:10140c00012382f83430002382f84530d06834351b
:10141c003d4403951a4a02928022019200930622bf
:10142c00314602f031fd03287ff408afc82303fbdb
:10143c0004740e23237201e7c823104a03fb002314
:10144c0093f8453093b1c82303fb002393f846303f
:10145c002bb9c82303fb0024e37a2372eee6c823de
:10146c00064a03fb00240b232372e7e6c822034b36
:10147c0002fb0034e06801f005fadfe6b000002062
:08148c00c99a0000c59600009a
:020000040000fa
:10149400601f00201c00000000000000c01f00208e
:1014a4000200000000000000341f00202c00000097
:1014b40001000000b5920000233100008f570000a6
:1014c4000000000000000000000000000000000018
:1014d400b16600003b9c000095900000854a000026
:1014e40010000020a000000000000000041f0020e5
:1014f4003000000001000000cd930000f1930000d3
:10150400759800008d9800007d990000000000008f
:1015140000000000000000000000000055910000e1
:1015240017630000a5380000b0000020e0010000af
:1015340000000000201b002030010000010000001a
:101544000000000000a000000000000000000000f7
:101554000000000000000000000000000000000087
:101564000000000000000000000000000000000077
:101574000000000000000000000000000000000067
:101584000000000000000000000000000000000057
:101594000000000000000000000000000000000047
:1015a4000000000000000000000000000000000037
:1015b4000000000000000000000000000000000027
:1015c4000000000000000000000000000000000017
:1015d4000000000000000000000000000000000007
:1015e40000000000000000000000000000000000f7
:1015f40000000000000000000000000000000000e7
:1016040000000000000000000000000000000000d6
:1016140000000000000000000000000000000000c6
:1016240000000000000000000000000000000000b6
:1016340000000000000000000000000000000000a6
:101644000000000000000000000000000000000096
:101654000000000000000000000000000000000086
:101664000000000000000000000000000000000076
:1016740090020020000200000000000090040020fe
:101684000c000000000000009c0400200800000082
:10169400000000008c1e0020380000000000000044
:1016a400501c0020a000000000000000c21f002009
:1016b400020000000100000001000000441e0020a0
:1016c4004800000000000000bc0c0020480300009b
:1016d40000000000941f002014000000000000001f
:1016e400f01c0020a00000000000000004100020f6
:1016f4008002000000000000b0040020540100003b
:1017040000000000c61f00200100000000000000cf
:101714008412002008000000000000007c1f00204c
:1017240018000000010000001006002040080020fe
:10173400d49b0000000000004006002000000000d0
:10174400a81f00201400000001000000989500006c
:101754009c950000a0950000a8950000ac950000a1
:10176400100600204c02000000000000d01e0020e3
:101774003400000000000000d014002030020000fb
:101784000000000090120020400200000000000051
:10179400c71f00200100000000000000c81f002037
:1017a40001000000000000008c1200200400000072
:1017b40000000000c41f0020020000000000000020
:1017c4002019002000020000000000000017002083
:1017d40020020000000000005c08002098010000c6
:1017e40000000000f01d0020540000000100000073
:1017f4007d930000bf990000519a0000115b000026
:1018040059510000d98d000005820000b533000055
:1018140039400000639a000041980000c79b000013
:1018240027980000b5800000ad9c0000a59300003f
:10183400298b00008b960000c39c0000bf9c000015
:101844005b980000f4090020c002000000000000c2
:10185400b40c00200100000000000000c41e0020a1
:101864000400000000000000c81e00200400000066
:1018740000000000cc1e0020040000000100000055
:10188400901d0020901d0020600000000100000059
:101894000000000000000000000000000000000044
:1018a4000000000000000000000000000000000034
:1018b4000000000000000000000000000000000024
:1018c4000000000000000000000000000000000014
:1018d4000000000000000000000000000000000004
:1018e40000000000000000000000000000000000f4
:1018f400b80c00200400000000000000bc1f002001
:1019040004000000000000000000000000000000cf
:020000040000fa
:101914002de9f04f83b00446814600f1500103469f
:101924000022c3f8342108339942fad1002384f801
:101934002c31d4f8ac3063b1d4f8b030db6883b167
:10194400c4f8b430204606f0c1fcd4f8b430c4f86e
:10195400343100263746b346b0460125aa460195e0
:1019640015e004f1ac0007f07afbc4f8b4000028d9
:10197400e8d10023c4f83431ebe7d4f8d83003b10c
:10198400bfb1d4f8c830002b53d15746019e94f808
:101994002d31452b00f29481092d00f39181002e05
:1019a400ebd0002f40f00381d4f8d8300bb9374680
:1019b400ede7d4f8d03093f82620f2b1013a83f859
:1019c4002620d4f8d03093f82620b2b108f10108cb
:1019d400d4f8d870b845b4bf00270127d4f8d03064
:1019e400db691bb3c4f8d030d4f8c830002b5cd00a
:1019f400002eccd1092dcadc1ce0d96879b1c4f819
:101a0400d410204606f093fc48b1d4f8d42004eb5b
:101a1400c503c3f834210222c3f830210135d4f8b8
:101a2400d03093f8242083f82620cfe7d4f8cc30a4
:101a3400d8e7574694f82d31452b38d8d4f8c03020
:101a440093f82620b2b1013a83f82620d4f8c030a6
:101a540093f8262072b10bf1010bd4f8c860b3459a
:101a6400b4bf00260126d4f8c030db69d3b1c4f872
:101a7400c0308ce7d96871b1c4f8c410204606f0b0
:101a840056fc40b1d4f8c42004ebc503c3f8342198
:101a9400c3f830a10135d4f8c03093f8242083f87a
:101aa4002620d8e7d4f8bc30e1e756466fe7002695
:101ab4006de7d4f8e03093f82620b2b1013a83f808
:101ac4002620d4f8e03093f8262072b108f10108fa
:101ad400d4f8e860b045b4bf00260126d4f8e0305d
:101ae400db69d3b1c4f8e0300fe1d96871b1c4f84f
:101af400e410204606f01bfc40b1d4f8e42004ebcb
:101b0400c503c3f83421c3f830710135d4f8e0308b
:101b140093f8242083f82620d8e7d4f8dc30e1e7d2
:101b2400092d00f3fb8094f82d31452b3cd8d4f8d3
:101b3400f03093f82620c2b1013a83f82620d4f875
:101b4400f03093f8262082b10af1010ad4f8f83073
:101b54009a45b4bf4ff0000b4ff0010bd4f8f030ae
:101b6400db69dbb1c4f8f030d8e0d96879b1c4f8e6
:101b7400f410204606f0dbfb48b1d4f8f42004eb63
:101b8400c503c3f834210422c3f830210135d4f845
:101b9400f03093f8242083f82620d5e7d4f8ec30ed
:101ba400e0e7ddf804b0b9e04ff0000bb6e04ff029
:101bb400000b5e46d846da4601970327aee0d4f818
:101bc400183103b137b1d4f80831002b50d15f4636
:101bd4005e4635e0d4f81031d96879b1c4f81411ef
:101be400204606f0a4fb48b1d4f8142104ebc50345
:101bf400c3f834210622c3f8302101350af1010a61
:101c0400d4f81871ba45b4bf00270127d4f81031ad
:101c1400db693bb3c4f81031d4f80831002b48d049
:101c24001eb308f10108d4f80861b045b4bf00261a
:101c34000126d4f80031db69002b37d0c4f8003119
:101c440094f82d31452b3bd8092d39dc002eb6d024
:101c5400b7bbd4f81831002bbcd1d4f808311bbb66
:101c64003746ede7d4f80c31d4e7092dd9dc00e090
:101c74005f4694f82d31452bd3d8d4f80031d96878
:101c84000029ced0c4f80411204606f050fb0028e9
:101c9400c7d0d4f8042104ebc503c3f834210522ca
:101ca400c3f830210135bce73746bae7d4f8fc3035
:101cb400c4e75e46c4e700273e46b846ba46bfe7d7
:101cc400d4f8343133b1204600f04cfa10b103b0eb
:101cd400bde8f08f0125002604e0013509f108096b
:101ce4000a2df4d0d9f83c31002bf6d084f82c51cd
:101cf4003146204602f0a2fc0028eed0e7e7d4f8f3
:101d0400e830002b7ff4d5ae019ed4f8f830002bd8
:101d14003ff447afbbf1000f3ff402af94f82d310d
:101d2400452bcdd8092dcbdc002ee8d0bbf1000f1c
:101d3400c1d1d4f8f830002b7ff4f5aeb346ede70b
:020000040000fa
:101d44002de9f04f85b09c4b1e68197d21b933787d
:101d54004bbb05b0bde8f08f3378002b40f0f48125
:101d640030460022531cdbb29942f2d010f8284fbf
:101d74000cb91a46f6e70232d2b2012a08bf002291
:101d84008d490a75ff2be4d003eb8303dd0074193e
:101d94006379012b09d0237b042bdad8dfe803f025
:101da4000a1d2e5080000b46eee7237b042b10d037
:101db4000023237394f82030012b00f0a08100232a
:101dc400735584f820306371a370e37063702371da
:101dd400bfe70022784b5a75eae7a3685b6a0321e0
:101de400e08898476061b0f1ff3fb2d0a3681b69f7
:101df40022467249984702232373aae7a3681b6803
:101e04006069984770b194f820301bb1012384f8bd
:101e140020309ee7a3685b6860699847606203238b
:101e24002373f3e794f82030012b03d0002384f8c4
:101e340020308ee7204606f0effb00232371f5e700
:101e44005d4b5b7d012b84d001225b4b5a75636a29
:101e54001b691b68b3f5007f3abf4ff40075b5fbef
:101e6400f3f50125544e4ff400720021306907f058
:101e740091fe022384f8213032696069a3680095d9
:101e84009d68002304f11c01a847e369b3f1ff3ff7
:101e940002d0042323735ce70022474b5a7558e7aa
:101ea40094f92130022b06d06bb10022424b5a75b3
:101eb400032323734de7a368db6a002b3ff449af88
:101ec4002069984745e73c4b1e690023637096f8e8
:101ed400fe31552b0ed0002635464ff0ff08364b09
:101ee4005f683b78002b6bd00022334b5a7502237a
:101ef40023732ee796f8ff31aa2b01d00026ebe7d7
:101f04003378eb2b2bd096f8c20107f0edfa074695
:101f14000546607096f8d20107f0e6fa20b147f062
:101f2400020501376770edb296f8e20107f0dcfaba
:101f340028b145f00405edb263780133637096f877
:101f4400f20107f0d1fa28b145f00805edb2637843
:101f540001336370002d40f0f4800126bce77378f0
:101f64003c2b03d0582b01d0fe2bccd1b378902b33
:101f7400c9d10123637096f85230462b00f0c38018
:101f840096f85330412b00f0c38096f85430542b0c
:101f940000f0c38096f83630462b00f0c38096f8e4
:101fa4003730412b00f0c38096f83830542b00f0c2
:101fb400c380002690e700bf7c1f0020998f00009b
:101fc400634bd3f810b0237901332371227e614b24
:101fd40053f822300393184607f0e4fd5ffa80f9c2
:101fe40007f1020a4a460399504607f04bf9a278d2
:101ff40007eb09039a7009f1010357fa83f3227975
:1020040030329a7009f1020357fa83f300229a706e
:10201400bc6187f801805db315f0010f58d01546f7
:10202400b8f1ff0f24d04c4b33f815301bf80320c4
:102034007a709b449bf80b209bf80a301b0403eb3b
:1020440002639bf8092003eb02239bf80820134446
:102054007b619bf807209bf806301b0403eb0263ab
:102064009bf8052003eb02239bf8042013443b61f7
:10207400002e3ed0394be2781a7001355d70012391
:102084003b70b8f1ff0f3ff42faf314b9d68227eb8
:102094002b7a9a427ff428af6e68711d504607f080
:1020a400cbfc00287ff420af6a7a296800230093d0
:1020b400304602f007fa00287ff416af284b1b685d
:1020c400002b3ff411af264a5268296898470be762
:1020d40015f0020f01d00125a2e715f0040f01d07d
:1020e40002259de705f00805002d0cbf00250325fa
:1020f40096e71a4be2781a7000225a70bfe720461e
:1021040006f08afa5be6002635464ff00b08e6e651
:10211400002635464ff00b08e1e6002635464ff021
:102124000b08dce6002635464ff00608d7e6002605
:1021340035464ff00608d2e6002635464ff006082d
:10214400cde60126b046cae60023014a13751be614
:102154007c1f0020a81f0020849c0000380600205b
:0421640084120020c1
:020000040000fa
:102168002de9f8430446d0f83451d0f8b070466ee3
:102178002b7f072b0dd0d0f86c80062b00f2e7815f
:10218800dfe813f01d0067007c00a200da00900170
:102198008b00ab6afb60fb69002b08bf3b46c0f8ad
:1021a800b0303f2386f80731fb232b736b69002b74
:1021b80000f0ca81284698470020bde8f883032329
:1021c8002b7300232b622b6893f90030002b3b7a8a
:1021d800b4bf63f07f0303f00f033b72012028773d
:1021e80086f8050196f8003103f0fc0386f8003103
:1021f800b8f80c3023f07f031b041b0ca8f80c3034
:10220800b8f80c309bb297f825201343a8f80c3087
:102218002b681a685b6822606360c8f80040002376
:10222800c8f8043097f82c301b0703f0e04343f05c
:102238000803c8f804303f2386f807313c2386f8a2
:102248000931402386f80531102386f80431bde8aa
:10225800f88396f8073113f0100f17d0102386f87b
:1022680007316b680bb1ab6823b904232b770020c7
:10227800bde8f88301233b7400237b6103232b779c
:10228800204604f029ff0120bde8f8833f2386f8a3
:10229800073106232b77fa232b7300237b61d4f8ad
:1022a800b030aa6ada60d4f8b030db69002b00f0ed
:1022b8004681c4f8b0306b69002b00f04b8128468a
:1022c80098470020bde8f88396f8073113f0080f07
:1022d80007d0082386f80731fd232b7306232b77b5
:1022e800dbe796f8073113f0200f07d0202386f894
:1022f8000731ff232b7306232b77cee796f8073198
:1023080013f0010f00f0a980052386f80731002398
:102318007b61d8f80430c3f30d0997f90830002b16
:102328004cdb2b6a4b442b626a6a4a446a62aa688d
:10233800934272d300237b6101233b7405222a77e1
:1023480086f805316b68c8f80030b8f80c3023f00f
:102358007f031b041b0ca8f80c30b8f80c309bb298
:1023680097f825201343a8f80c300023c8f8043048
:1023780097f82c301b0703f0e043c8f8043096f8b0
:10238800003103f0fc0386f800313f2386f807315b
:102398002d2386f8093197f90830002b78db402384
:1023a80086f8043196f8003143f0010386f80031cd
:1023b800102386f804310120bde8f88368682b6a89
:1023c8004a462146184407f001fb2b6a4b442b620e
:1023d8006a6a4a446a62ba699145add3a9688b4270
:1023e800aad2ab69994501d09145a5d103232b7396
:1023f8003b7c83f001033b74aa696b6a9a4207d954
:1024080003232b77204604f067fe0120bde8f883fc
:1024180002232b770020bde8f883ab69994502d0e9
:10242800bb69994588d103232b733b7c83f0010357
:102438003b74aa696b6a9a4207d802232b77032355
:102448002b7300207861bde8f88303232b7720469f
:1024580004f042fe0120bde8f88396f8073113f036
:10246800040f3ff469af042386f8073102232b7762
:102478007b6901337b61b3f5fa6f04d306232b77ad
:10248800fe232b7309e702232b770020bde8f8838e
:10249800402386f8053196f8003143f0020386f8a8
:1024a800003185e796f8073113f0080f07d00823a5
:1024b80086f80731fd232b7306232b77ede696f874
:1024c800073113f0200f07d0202386f807310623a1
:1024d8002b77ff232b73e0e696f8073113f0010ff3
:1024e80014d0052386f8073106232b7700232b7396
:1024f80097f90830002bbff6d0ae2b6aaa689a422b
:102508007ff6cbae01222a73ab60c6e696f8073198
:1025180013f0040f21d0042386f807312b777b6949
:1025280001337b61b3f5fa6f04d906232b77fe23b9
:102538002b73b2e604232b770020bde8f883d4f888
:10254800ac30c4f8b030b6e60020bde8f88300200f
:10255800bde8f8830020bde8f8830020bde8f883d3
:020000040000fa
:1025680090f9e6300f2b00d0704770b582b0044662
:1025780090f8a031013b062b31d8dfe813f00700b3
:10258800300043009000e80004013b0190f8f0306f
:10259800802280f8ce20062280f8cf2003f5007331
:1025a800a0f8d030002380f8d23080f8d330092248
:1025b80080f8d42080f8d53000f18c02026100f157
:1025c800ce02c260092242610362032380f8a0316f
:1025d800836edb6800f10c01406d984708b902b0c2
:1025e80070bdff2384f8e630a36e1b6a606d9847c0
:1025f800a34b1b68002bf2d0a14a5268002101208e
:102608009847ece790f91830002b35d190f87030e6
:1026180073bb90f8933013f0400f29d190f89420b1
:1026280001ebc101974b03ebc1010b6ab3eb420ffe
:102638001ed2d0f8d830bbb1a8228df804200f22c2
:1026480080f8e620002180f8a0119d6983686a4619
:10265800c06ca8478a4b1b68002bc0d0884a5268b8
:10266800002108469847bae7ff2380f8e630f1e7eb
:10267800042384f8a031b2e7002bb0da836e1b6a1a
:10268800406d9847ff2384f8e6307d4b1b68002b8c
:10269800a5d07b4a52680021012098479fe7d0f8cf
:1026a800f40008b107f06cfab4f88e60b5b2e81d12
:1026b80007f05efac4f8f400002836d094f8f03039
:1026c800802284f8ce20062284f8cf2003f50073f8
:1026d800a4f8d030002384f8d23084f8d330a4f89a
:1026e800d460206104f1ce02e260656123620523b3
:1026f80084f8a031a36edb6804f10c01606d984783
:1027080000283ff46cafff2384f8e630a36e1b6a01
:10271800606d98475a4b1b68002b3ff460af584ace
:10272800526800210120984759e7ff2384f8e630d2
:10273800a36e1b6a606d9847514b1b68002b3ff4d2
:102748004eaf4f4a526800210120984747e790f959
:102758001830a3b1002bbff642af836e1b6a406de1
:102768009847ff2384f8e630454b1b68002b3ff45d
:1027780036af434a52680021012098472fe70623c5
:1027880080f8a0312be7d0f8f4305a79002380f88c
:10279800ce30092180f8cf10a0f8d02080f8d230b0
:1027a80080f8d33080f8d43080f8d530036100f158
:1027b800ce02c26043610362072380f8a031836eb2
:1027c800db6800f10c01406d984700283ff407af23
:1027d800ff2384f8e630a36e1b6a606d9847284b88
:1027e8001b68002b3ff4fbae254a526800210120ec
:1027f8009847f4e690f91830abb1002bbff6efae6e
:10280800a8238df80430031d0093d0f8d8302bb1dd
:102818009d6983686a460021c06ca847002323711c
:1028280084f8a031dbe606f0fdf9d4f8f4200023a3
:10283800ff255188d01845540133072bf9d120467c
:1028480004f00afa90b9a8238df80430231d0093e8
:10285800d4f8d8302bb19d69a3686a460021e06c92
:10286800a8470023237184f8a031b8e6d4f8f430df
:102878005b7984f8993101238df80430e6e700bfcd
:08288800941f0020441e0020f3
:020000040000fa
:10289000b0f1ff3f00f0708170b584b0c4b2642322
:1028a00003fb04f3b54ad35c33b1642303fb042375
:1028b00093f91830032b01d004b070bd642303fbdf
:1028c000042393f84e30013b0b2bf5d8dfe813f0cf
:1028d0000c00350055006b007a009100c200d90051
:1028e000f3000a0124013b01642000fb04f0a34d26
:1028f000291891f84c20212381f85230ff2381f8c8
:1029000053300023a1f85430a1f85620a1f85830d4
:1029100081f8513000f15202c86901919849009143
:102920002a4403a903f0e0fd0128c5d1642303fb79
:102930000454022384f84e30bee764238f4a03fb1d
:10294000042393f85130002bb6d0642303fb0423f7
:1029500093f95a30012b09d06423884a03fb0423de
:1029600007221a66ff221a76042256e0642303fb2c
:102970000424032384f84e309ee764237f4a03fb3c
:102980000423002283f84f20224602a9186a02f08d
:1029900029fd012890d16423784a03fb04240423f1
:1029a00084f84e3088e76423744a03fb042393f8c9
:1029b0004f30002b80d0642303fb0424052384f8cc
:1029c0004e3079e764236d4a03fb0423002283f829
:1029d0004f20224602a9586a02f004fd01287ff424
:1029e0006baf6423654a03fb0424062384f84e304e
:1029f00062e76423614a03fb042393f84f30002b02
:102a00003ff45aaf642303fb0423002283f84e20d3
:102a10001b7b934214bf022204226423574903fb09
:102a20000413dd6a65b1642303fb04f303f1280694
:102a300052490b44586c1b6c009300233144a84747
:102a400064204e4b00fb0434002384f8283084f8c3
:102a50004d3031e76423494a03fb0423002283f805
:102a60004f20224602a9186a02f0bcfc01287ff41c
:102a700023af6423414a03fb0424082384f84e3027
:102a80001ae764233d4a03fb042393f84f30002bdd
:102a90003ff412af642303fb0423002283f84e208b
:102aa000032283f84d209a68186a00940d2303a925
:102ab00002f006ff00e76423304a03fb04230022f0
:102ac00083f84f20224602a9586a02f08bfc0128a5
:102ad0007ff4f2ae6423294a03fb04240a2384f81a
:102ae0004e30e9e66423254a03fb042393f84f3074
:102af000002b3ff4e1ae642303fb0423002283f8a0
:102b00004e20032283f84d209a68186a00940d2302
:102b100003a902f0d5fecfe66423184a03fb042381
:102b2000002283f84f20224602a9186a02f05afcbc
:102b300001287ff4c1ae6423104a03fb04240c2354
:102b400084f84e30b8e664230c4a03fb042393f860
:102b50004f30002b3ff4b0ae642101fb042103236e
:102b600081f84d300d2381f84e308a68086a009450
:102b700003a902f0a5fe9fe6704700bf30000020c9
:042b8000b99a0000fe
:020000040000fa
:102b840070b50546446ea38b13f4807f0ad0238b63
:102b940013f4807f06d0012380f842304ff4807311
:102ba400a383a382a38b13f4007f3ed0238b13f45f
:102bb400007f3ad0002185f842104ff44073a3837c
:102bc4004ff40073a38210263f2004eb411282f8d5
:102bd400056192f8063113f0100ffad092f8003123
:102be40003f0c70382f8003182f8070104eb4113b4
:102bf40083f8080101310729e7d10c23a382a383b9
:102c0400d5f88c01b0f1ff3f07d0012385f880315e
:102c140003f006f8002385f880314ff0ff33c5f840
:102c24008c314ff48073a3832383a38b13f0080f99
:102c340057d0238b13f0080f53d0002385f8943119
:102c44000823a383a382237b13f00c0f40f0f680a8
:102c5400022385f87030e0220021e86e06f09aff26
:102c6400082384f80031002284f803213f2384f8e8
:102c74000831112184f8201184f8232184f82831a3
:102c8400122184f8401184f8432184f84831192032
:102c940084f8600184f8632184f868311a2184f887
:102ca400801184f8832184f8883184f8a00184f8a1
:102cb400a32184f8a83184f8c01184f8c32184f8ce
:102cc400c8312b4605f17001c3f8b020c3f8b82011
:102cd400c3f8ac20c3f8b42010338b42f4d10423de
:102ce4002383a38b13f0040f04d0238b13f0040f5e
:102cf40040f0ae80238c9bb2002b00f09e80238c8e
:102d040013f0010f00f0ad80102384f8053194f81e
:102d1400063113f0100ffad03f2384f80831284607
:102d2400fff720fa238c13f0020f0ed03f2384f810
:102d34002831102384f8253194f8263113f0100f2c
:102d4400fad00121284601f079fc238c13f0040ffa
:102d54000ed03f2384f84831102384f8453194f889
:102d6400463113f0100ffad00121284601f066fc19
:102d7400238c13f0080f0ed03f2384f868311023fe
:102d840084f8653194f8663113f0100ffad00121fc
:102d9400284601f053fc238c13f0100f0ed03f2370
:102da40084f88831102384f8853194f8863113f03f
:102db400100ffad00121284601f040fc238c13f0b7
:102dc400400f0ed03f2384f8c831102384f8c53156
:102dd40094f8c63113f0100ffad00121284601f0ff
:102de4002dfc238c13f0200f0ed03f2384f8a83140
:102df400102384f8a53194f8a63113f0100ffad0fb
:102e04000121284601f01afcb8b9002495f82c31a8
:102e14000133dbb285f82c31092b0ed805ebc30343
:102e2400d3f83431002bf1d02146284601f006fcba
:102e340018b995f82c31092be8d970bd237b03f020
:102e44000c03042b0cbf0323002385f8703002e726
:102e54000423a383002385f82d312846fef758fd6b
:062e640048e700205ee7d4
:020000040000fa
:102e6a002de9f04f099f15469c4604468846002bdb
:102e7a0040f0cd808a424cd9b2fa82febef1000ff0
:102e8a000bd0cef1200802fa0ef520fa08f801fa62
:102e9a000ef248ea020800fa0ef44fea1549abb2fc
:102eaa00b8fbf9fa260c09fb1a820afb03fb46ea6d
:102eba00024293451ed952190af1ff3004d29345b2
:102eca0002d9aaf102002a44a2eb0b02a4b2b2fb75
:102eda00f9f609fb162206fb03f144ea024399427a
:102eea000ad95b1906f1ff3207d2994205d9b21ef7
:102efa002b4402e05046e7e732465b1a42ea0040ba
:102f0a0027b123fa0ef33b6000237b606146bde8dc
:102f1a00f08f12b90125b5fbf2f5b5fa85febef1bf
:102f2a00000f2ed14a1b4ff0010c2e0cabb2b2fb94
:102f3a00f6f8210c06fb182208fb03f941ea0242c3
:102f4a00914560d9521908f1ff3004d2914502d94e
:102f5a00a8f102002a44a2eb0902a4b2b2fbf6f8d5
:102f6a0006fb182208fb03f144ea024399424cd9b2
:102f7a005b1908f1ff32c0d29942bed9a8f1020208
:102f8a00b6e7cef1200421fa04fc01fa0ef220fa87
:102f9a0004f405fa0ef544ea02064fea154800fa67
:102faa000ef4bcfbf8f1aab208fb11cc300c01fb01
:102fba0002f940ea0c43994521d95b1901f1ff3026
:102fca0003d2994501d9881e2b44a3eb0903b6b253
:102fda00b3fbf8f908fb193309fb02f146ea03428d
:102fea0091420ed9521909f1ff3c04d2914202d9f9
:102ffa00a9f1020c2a44521a4cea004c95e70846f9
:10300a00e3e7cc46f7e74046a5e7424675e78b4239
:10301a0006d90fb187e803004ff0000c604675e748
:10302a00b3fa83f68eb98b4201d382420bd8841a43
:10303a0061eb030201209046002f6bd087e8100154
:10304a004ff0000c62e73046f6e7c6f1200eb340b7
:10305a0022fa0ef51d4321fa0efb02fa06f401fad2
:10306a0006f220fa0ef10a434fea15491ffa85f8cb
:10307a00bbfbf9fa4fea124c09fb1abb0afb08f12f
:10308a004cea0b4c614500fa06f33fd91ceb050ce0
:10309a000af1ff3004d2614502d9aaf10200ac4418
:1030aa00aceb010c92b2bcfbf9fa09fb1acc0afb95
:1030ba0008f842ea0c4188452ad949190af1ff322f
:1030ca0004d2884502d9aaf10202294442ea004000
:1030da00a1eb0801a0fb04894945c246cc4602d3ac
:1030ea0006d1434504d2b8eb040a69eb050c013852
:1030fa0087b1b3eb0a0261eb0c0303fa0efef2404e
:10310a004eea0202f34087e80c0099e75046c7e707
:08311a005246dbe7bc46f9e672
:020000040000fa
:023122007047f4
:020000040000fa
:103124002de9f04385b00d4600230b6005f030f91e
:10313400061ec0f2f980994b53f82640002c00f08b
:10314400f7802c60237833b1607806f0b4fd10f07a
:10315400010f00f0ef8000232370914b13f8160049
:10316400607006f0dffc10f0010f01d00320dce0fa
:103174008b4b03eb460677780021204604f022ffb0
:10318400022801d03bd8d7b3042f01d90d20cce0bd
:1031940004f5fb756e4604f23628284606f0f7fb64
:1031a40046f8040b10354545f7d10fb17d1e00e0fc
:1031b4003d460deb85064ff0030818e0204604f069
:1031c40001ffe7b901280fd8042800f0cb8094f858
:1031d4003c2094f83b3043ea02231bb2b3f5007f52
:1031e40014d00d20a1e040460135032d07d856f830
:1031f400041b0029e2d1002ff5d00d2095e004280e
:1032040000f09a800128e2d90d208ee094f847302e
:1032140094f8467057ea032704d104f1540006f0e9
:10322400b6fb0746e66aa76194f84050a5706b1e8a
:10323400dbb2012b01d90d2077e094f83d901ffa01
:1032440089f36381002b79d009f1ff3313ea090f65
:1032540001d00d2069e094f8423094f8418048eaa6
:103264000328a4f8088018f00f0f69d194f84430ab
:1032740094f8430050ea032003d104f1500006f00f
:1032840086fb94f83f2094f83e3053ea022359d049
:1032940007fb05f203eb18111144884254d3451a75
:1032a400b5fbf9f5002d51d03e48854294bf4ff04f
:1032b40003094ff000094ff6f570854298bf4ff0af
:1032c400020940f6f57085424ed9b9f1000f3fd09e
:1032d40002356561e661334423620e44a662b9f1a6
:1032e400030f4ad194f85b2094f85a3053ea02232e
:1032f40030d1b8f1000f2fd104f15c0006f047fb88
:103304006062ad0005f2ff15b7eb552f28d384f8a2
:103314000090254a138801339bb21380e380234b2a
:10332400e3600020206100e00b2005b0bde8f083dd
:103334000c20fae70020f8e70120f6e70d20f4e777
:103344000d20f2e70d20f0e70d20eee70d20ece76d
:103354000d20eae70d20e8e70d20e6e70d20e4e77d
:103364000d20e2e70120e0e702356561e6613344c0
:1033740023620e44a6624ff00109b8f1000fedd0ac
:1033840013446362b9f1020f0fbf6d0005eb4503ef
:1033940005f0010505eb5305b4e700bf8c120020ce
:1033a40038060020f5ffff0fc41f0020201900205d
:020000040000fa
:1033b4002de9f04303469df820409df82460bdf8b4
:1033c40028009df82c50b3f1ff3f00f01f81002b23
:1033d40000f0208193f841701fb94ff0ff30bde831
:1033e400f08393f84e70012f03d04ff0ff30bde807
:1033f400f083002783f84e708a4f3f78a7b1dff837
:1034040024e20127b8469ef830c0bcf1000f0dd06d
:1034140001370ef1300e0a2ff4d14ff0ff300122a4
:1034240083f84e20bde8f0834ff00008dff8f4c1c4
:1034340008eb480e4fea0e1e0ceb0e074ff0010985
:103444000cf80e9087f825100021f96087f82850b1
:103454007c727b60b86187f8266087f824603974d1
:103464003a72032c00f2da80dfe804f002184b5ab7
:10347400032d0ad008eb48016a4a02eb011203212a
:1034840082f82c1000273e4616e03022654902fbe4
:103494000812002682f82c6037460de052b2002a4a
:1034a400b4bf0126022608eb48015e4a02eb011272
:1034b400072182f82c10032708eb4801594a02eb34
:1034c400011282f82b60421e92b2b2f5007f41d203
:1034d40010f0010f66d14008012210f0010f5ed1f7
:1034e40040080132d2b20a2af7d1012c6cd008eb81
:1034f40048084fea081200204a4988544ff0ff3028
:103504008de752b2002ab4bf0526062608eb48010f
:10351400444a02eb0112032182f82c100227cbe764
:1035240052b2002ab4bf03260426032d09d008eba7
:1035340048013c4a02eb0112032182f82c100127b6
:10354400bae73022374902fb0812002182f82c1016
:103554000127b1e70028c8d10022032d24d008ebad
:103564004801304800eb011007eb870107eb4107e6
:103574003a442d4951f8222080f8272008eb4802cc
:10358400284800eb021003eb0612d2f8ac1051bb32
:1035940003eb0612c2f8ac00c2f8b00027e00a2a16
:1035a400dbd1a2e70022d8e7032c01d0002c9ed166
:1035b40030211c4801fb080102eb87021b4850f82c
:1035c400222081f82720d9e7022d90d130221549f5
:1035d40002fb08122c21144801fb0707b96a82f880
:1035e4002710cbe71146ca69002afbd1c86108eb52
:1035f40048080c4a02eb08120021d16103eb0616bd
:10360400d6f8b8200132c6f8b82008e74ff0ff30ea
:10361400bde8f0834ff0ff30bde8f0834ff0ff309a
:10362400bde8f083d40a0020ac730000f0950000dc
:020000040000fa
:10363400f0b585b06423974c03fb004393f918302d
:10364400032b01d005b0f0bd04466423914803fb6d
:10365400040393f94d30022b51d0032b00f0a780c3
:10366400012befd101290dd011f1610f3cd064235e
:10367400884a03fb042306221a66ff221a760023d3
:1036840004224be0642303fb04039b6bebb1642231
:1036940002fb040292f83c20802a11d064227d4966
:1036a40002fb0412506a64227a4902fb04120221ca
:1036b40082f84d10926c009403a902f0fff8c1e760
:1036c400642202fb0402106aede76423714a03fbdf
:1036d4000423032283f84d209a68186a00940d236a
:1036e40003a902f0ebf8ade764206a4b00fb043059
:1036f400012380f84e30ff2380f84d30a2e70129e2
:1037040028d011f1610f34d06423624a03fb0423ef
:1037140006221a66ff221a760023042264215d48d9
:1037240001fb0401ce6a5eb1642505fb04f505f1d5
:10373400280758490d44686c2d6c00953944b047ee
:103744006420544b00fb0430002380f8283080f8b8
:103754004d3077e764234f4a03fb0423032283f8a5
:103764004d209a68186a00940d2303a902f0a6f864
:1037740068e76423474a03fb042393f83c30802b17
:103784000ed06423434a03fb0423092283f84e200a
:103794006420404b00fb0430ff2380f84d3051e798
:1037a400642303fb0423072283f84e20f0e7012956
:1037b4000dd011f1610f58d06420364b00fb04305a
:1037c400ff2380f84d300b2380f84e303ae7642312
:1037d400304903fb0413996893f84e300d2b0ed037
:1037e40008682d4b984212d064202a4b00fb043009
:1037f400ff2380f84d30012380f84e3022e7642304
:10380400244803fb0403002083f84e00e8e74868db
:10381400224b9842e8d10d2ae6d10a7b012a0cd921
:10382400022a16d064231b4a03fb042306221a66c9
:10383400ff221a760023042270e78968642315485e
:1038440003fb04035b689b6899423ff667af5b1a0e
:1038540064e764200f4b00fb0430ff2380f84d30f5
:10386400012380f84e300373ece66423094a03fb1a
:103874000423ff2283f84d2093f84e300d2b4ff094
:103884006400044b00fb04300cbf01230b2380f8bd
:103894004e30d7e63000002055534253dd3113dd5e
:020000040000fa
:1038a400f0b585b00446fef7f1ff8d4b1b78bbb92c
:1038b400204605f04bfe041ec0f20f81c823884a3f
:1038c40003fb04235b7a013b062b00f2eb80dfe869
:1038d40013f00b003a007800a300e900e900c900e6
:1038e4000020fdf751fbe3e7c82505fb04f505f1ce
:1038f40059067b4f3e44304606f075f87a19012389
:1039040082f85830002382f86930d2f8b030d06899
:1039140058353d440395734a029280220192122243
:1039240000920622314600f0b3fa032805d000f0d5
:10393400fd00042840f0d180b6e0c82303fb0474e2
:1039440002236372c9e0c823654a03fb042393f886
:103954006930002b00f0c180c82303fb042393f8d3
:103964006a30002b40f0b980c82303fb0423d3f84a
:10397400b020937803f00f03022b08d0062b0dd050
:10398400032b16d0507bb0fa80f040098be0c8239b
:10399400534a03fb0424032363729ee0137b3a2bf4
:1039a400f0d1c8234e4a03fb0423002283f8b52038
:1039b4007ae0c8234a4a03fb0423012283f8b62091
:1039c40072e0c82505fb04f505f15906444f3e4451
:1039d400304606f07ff87a19012382f85830002324
:1039e40082f86930d06858353d4403953d4a0292c7
:1039f4008022019200930622314600f049fa0328fe
:103a040004d000f0fd00042867d14de0c82303fb77
:103a140004740423637260e0c823314a03fb042363
:103a240093f86930002b58d0c82303fb042393f880
:103a34006a302bb9c82303fb0424072363724ce0c8
:103a4400c823274a03fb0423d3f8b830632b2bd8ad
:103a5400c822234902fb04140133c4f8b8300323f9
:103a640063723ae0c82202fb04f21d4eb518ab6a39
:103a740002f11101e86803951b4a029295f830207f
:103a84000192ea6a520200920a22314400f000fada
:103a9400032804d0042814bf0020012003e00023dd
:103aa4006b721ae00020c0b1c8230d4a03fb042343
:103ab400d3f8a85055b11146c82303fb04f31a44a4
:103ac4001033d2f8ac2019440120a847c822044b73
:103ad40002fb043400232374637205b0f0bd00bffd
:0c3ae400b0000020c99a00009981000089
:020000040000fa
:103af00061001a03e0001703f8000703ff0001004c
:103b000078010001300132010601390110014a013a
:103b10002e017901060180014d00430281018201dd
:103b200082018401840186018701870189018a015c
:103b30008b018b018d018e018f019001910191010b
:103b400093019401f60196019701980198013d02b5
:103b50009b019c019d0120029f01a001a001a201e7
:103b6000a201a401a401a601a701a701a901aa011c
:103b7000ab01ac01ac01ae01af01af01b101b201cb
:103b8000b301b301b501b501b701b801b801ba017c
:103b9000bb01bc01bc01be01f701c001c101c201f2
:103ba000c301c401c501c401c701c801c701ca01dd
:103bb000cb01ca01cd011001dd0101008e01de0142
:103bc0001201f3010300f101f401f401f8012801ed
:103bd000220212013a020900652c3b023b023d021f
:103be000662c3f0240024102410246020a01530292
:103bf000400081018601550289018a0158028f0126
:103c00005a0290015c025d025e025f029301610252
:103c100062029401640265026602670297019601de
:103c20006a02622c6c026d026e029c0170027102cb
:103c30009d01730274029f01760277027802790275
:103c40007a027b027c02642c7e027f02a601810242
:103c50008202a9018402850286028702ae01440223
:103c6000b101b20145028d028e028f0290029102d3
:103c7000b7017b030300fd03fe03ff03ac03040055
:103c80008603880389038a03b1031103c203020078
:103c9000a303a303c4030803cc0303008c038e0314
:103ca0008f03d8031801f2030a00f903f303f403a6
:103cb000f503f603f703f703f903fa03fa033004f5
:103cc000200350041007600422018a043601c10455
:103cd0000e01cf040100c004d00444016105260494
:043ce000000000bf21
:020000040000fa
:103ce40090f9e6300f2b00d0704790f89931013be2
:103cf400dbb2fd2bf8d82de9f04f87b0044690f8dd
:103d0400cd30002b00f09f8000f1f8080546002715
:103d14004ff0010a2ae04646d4f8d820002a42d0bf
:103d240095f80831002b3ed1d5f8fc3053b33eb39f
:103d340001ab0022f16843f8041bd4f8d810b16039
:103d440086f810a00132f669002ef3d1d4f8d830e9
:103d5400de69d9f8fc30a16c01a8b047013708f13d
:103d64002008203594f8cd30bb426cdda946d5f847
:103d74000031002bcfd09b6ad5f804019847ede7ba
:103d84000022e3e7d5f8f830002be7d0d5f804118a
:103d94000191c5f80021d6695246a16c01a8b0472b
:103da40085f808a1dae7d9f80c31384a92f809b055
:103db4005b45d3dad9f8fc0028b301338279417921
:103dc400007904f04bf8c9f80c018345c6dd2f4b8c
:103dd400db6803eb0013d9689eb101ab0022a64651
:103de400f46843f8044bb16070610132f669002e47
:103df400f6d17446ce69d9f8fc30a16c01a8b0475d
:103e0400ace70022f6e7d9f8f860002ea6d001331b
:103e1400f279b179707904f021f8c9f80c0183457d
:103e24009cddd9f804310193184bdb6803eb0013d4
:103e3400db68c9f80031d3f81c9033465246a16cb4
:103e440001a8c8478ae7d4f8d83013b107b0bde851
:103e5400f08f0e4b5b7ad4f8dc209a42f6db2046d6
:103e640004f05eff0028f1d0ff2384f8e630a36e4f
:103e74001b6a606d9847054b1b68002be6d0034a0c
:103e84005268002101209847e0e700bf941f0020fa
:020000040000fa
:103e94002de9f04385b09df83470b0f1ff3f00f098
:103ea400c380c5b2642404fb05f4614e345d0cb9cf
:103eb4000420bae0642404fb056494f85040012c07
:103ec40001d00520b1e0642404fb0564002684f8d5
:103ed400506094f91840032c0bd0002cc0f29b8046
:103ee4006422534b02fb0535012385f8503005202d
:103ef4009be064244e4e04fb056494f82840002c97
:103f0400eed1642404fb056494f94d40002ce7d100
:103f14004ff0640e0efb056e01248ef828408ef8d7
:103f24005040def804604ff000094ff0550c86f85d
:103f340000c04ff0530c86f801c04ff0420c86f8d5
:103f440002c04ff0430c86f803c0def804606ff043
:103f5400220c86f804c04ff0310886f805804ff033
:103f6400130886f8068086f807c0def80460b2738a
:103f7400def804600c9cb460def8046037738ef8dd
:103f84000c90def804604fea102e86f80de04c46e3
:103f94004ff0640e264e0efb056ecc46def8046030
:103fa400264486f80fc00134102cf7d191468ab10b
:103fb40001f1ff3e00244ff064081d4e08fb056824
:103fc400d8f804601ef801cf264486f80fc00134e7
:103fd4004c45f5d16424164e04fb05640e9ee6623e
:103fe4000f9e26640c9ea66384f83c70216384f8bb
:103ff40034206064a364012384f84d30002384f8e2
:104004004e306268606a00951f2303a901f056fcd4
:1040140005f00cfb09e06423054a03fb0525012395
:1040240085f85030042000e0062005b0bde8f08398
:044034003000002038
:020000040000fa
:10403800431e13f1030f00f2bd802de9f04f83b04a
:10404800044603784bb10546466896f84330002b82
:104058007ed196f84e30012b02d003b0bde8f08f28
:10406800002386f84e3096f84a0004f037fd009099
:1040780096f84b0004f032fd019096f84c0004f0dd
:104088002dfd834696f84d0004f028fd814666e034
:10409800ea6906eb0113c3f8ac201946d3f8b83027
:1040a800013bc1f8b8307be096f8803143b984f819
:1040b8001ca0a46a64b1e76294f90c30032bf3d016
:1040c80084f80c806369002bf3d020469847f0e70a
:1040d80000232b7096f84330002bbed1009b53b1c0
:1040e80096f84a30590903f01f03012202fa03f334
:1040f800314a42f82130019b53b196f84b305909a7
:1041080003f01f03012202fa03f32b4a42f821307d
:10411800bbf1000f0ad096f84c30590903f01f0381
:10412800012202fa03f3244a42f82130b9f1000fc0
:104138000ad096f84d30590903f01f03012202fafc
:1041480003f31d4a42f82130012386f84e3084e7f4
:104158004ff00009cb46cdf80490cdf8009095f8c3
:104168002b1006eb0113d3f8ac20954290d0002a0f
:104178003ff473afd3699d4208bf134607d0002ba5
:104188003ff46bafda69944201d01346f7e7ea6966
:10419800da6106eb0111d1f8b830013bc1f8b8304b
:1041a800ec68002c94d04ff0ff374ff0070a4ff01f
:0c41b800fb0880e7704700bf00e100e05a
:020000040000fa
:1041c400f0b585b00446c8235c4a03fb00239b7a00
:1041d400013b032b00f29d80dfe803f00231889d50
:1041e400c82505fb00f505f13506544f3e4430461d
:1041f40005f070fc7a19012382f83430002382f828
:104204004530d06834353d4403954d4a02928022ae
:104214000192009306223146fff73afe032808d0a4
:10422400052876d1c823454a03fb04240323a3723b
:104234006fe0c82303fb04740223a37269e0c8235c
:104244003e4a03fb002393f84530002b46d0c82395
:1042540003fb002393f846306bb3c823374a03fbb0
:104264000023002283f8b520d3f8c4206432c3f8b5
:10427400c420b2f5fa7f2ad3c823304a03fb0023b3
:10428400d3f8a85045b1c82303fb0023d3f8ac20ce
:104294004ff0ff310220a847c823284a03fb042417
:1042a400606805f0a7fc4ff0ff33636001232372bd
:1042b4000023a3722de0c82303fb0024012384f808
:1042c400b5300023c4f8c4300323a37221e0c8230b
:1042d4001a4a03fb00240323a3721ae0c823174ad3
:1042e40003fb0024e068fef7d1fa12e0c825134b63
:1042f40005fb0035002385f8c030642229461148a7
:1043040004f00cfac5f8bc00b0f1ff3f01d004235f
:10431400ab7205b0f0bdc823084a03fb002393f831
:10432400c030002bf5d0c822044b02fb003401231b
:10433400a3724ff0ff33c4f8bc30eae7b0000020aa
:08434400c99a0000c5960000b3
:020000040000fa
:10434c002de9f0438bb080460769fcb25a4d4ff40f
:10435c00d27606fb04f6311d05eb010904f020ffb3
:10436c00354495f84030042b00f28480dfe803f0ec
:10437c00031a3f718c004ff4d2734f4a03fb042392
:10438c005d6c002d76d0d8f808304ff4d2724a49c3
:10439c0002fb0412966c9268009202464946304623
:1043ac00a84767e0c7f307278df82400cdf82090c5
:1043bc004ff4d27303fb04f303eb47133e4a13444d
:1043cc00d3f80021002a55d0556a002d52d03a4a14
:1043dc004ff4d27303fb04f3d11803eb4713d71834
:1043ec008b6808aa0221d7f80401a84742e0c7f35a
:1043fc0007278df81c00cdf8189001281bd04ff41e
:10440c00d27303fb04f303eb47132b4a1344d3f887
:10441c0000317bb35d6a6db34ff4d27303fb04f3cd
:10442c00d11803eb4713d7188b6806aa0121d7f8cc
:10443c000401a8471ee0204b4ff4d27202fb04f299
:10444c0002eb47111944134493f85d3081f8103195
:10445c00d5e74ff4d273184a03fb04235b6c4bb1c2
:10446c004ff4d272144902fb04129268d8f8081067
:10447c00484698474ff4d2720f4b02fb043400238a
:10448c0023710bb0bde8f083cdf808908df80c00cb
:10449c004ff4d273084a03fb0423d3f8d830002b13
:1044ac00e8d04ff4d27000fb04209d69836802aa07
:0c44bc000121c06ca847dde7bc0c00200b
:020000040000fa
:1044c800002800f0a98070b582b00446a9b1531e37
:1044d800dbb2012b11d815460e4604f041f890b115
:1044e8000022504b1a70504b1b78ab4252d0152209
:1044f8004c4b1a704ff0ff3040e01322494b1a70b2
:104508004ff0ff303ae00322464b1a704ff0ff306d
:1045180034e00122434b1a704ff0ff302ee0162290
:10452800404b1a704ff0ff3028e000223f4b1a70c2
:104538003f4b1b78002b43d001223c4b1a701422ae
:10454800384b1a704ff0ff3018e00022384b9a733e
:10455800a36cabb19847364b5b681b68a3b1344a70
:10456800507b98472f4b18700d2808bf0020012258
:104578002f4b9a73003018bf0120404202b070bd23
:104588001722284b1a70e6e71722264b1a704ff0ad
:10459800ff30ece76946204604f0a8fc0028b8d0b4
:1045a8009df804309d4201d0002bb8d11f4b1b78d9
:1045b800012bbad007221b4b1a704ff0ff30dde7f2
:1045c8001b4b5d70184a54685c6000221a73701d9a
:1045d80073792f2b0bd053b10146154a137b013346
:1045e800137311f8013f2f2b01d0002bf6d1104b7c
:1045f80098609df80000587301221a700d490a70de
:104608004b600a490a709b7b93429ed00722054b58
:104618001a704ff0ff30b1e71322024b1a704ff0b7
:10462800ff307047f0050020e8050020b0040020a6
:08463800f4050020e00500205c
:020000040000fa
:104640002de9f0410e4690f82c3100ebc303d3f86e
:104650003441e76ad3f83021436e217f072920d007
:1046600005467eb3797a012900f09a8052011344fd
:1046700093f8071111f0080f2fd0082283f80721b3
:10468000fd23237306232377a36afb60236aa360b9
:104690006369002b00f08a80204698470020bde81f
:1046a000f081a16af960083203eb42133f22da710c
:1046b000fb2323736369002b6fd0204698470020ab
:1046c000bde8f0810323237300eb0212c2f8b4406b
:1046d00001f030fd0120bde8f08193f8071111f0e1
:1046e000200f05d0202283f80721ff232373cbe777
:1046f00093f8071111f0010f44d0052183f8071139
:10470000c36e1a445368c3f30d0897f90830002ba1
:1047100018db236a43442362636a434463623b7c3d
:1047200083f001033b74bb69984513d3a168226ae7
:10473000914216d9a269904516d0984514d0002010
:10474000bde8f0816068236a42462946184405f0b6
:1047500041f9dee7a268236a9a4202d90123237352
:1047600092e7002323738fe7636a9a4202d80020fe
:10477000bde8f08103232373284601f0dbfc3046bb
:10478000bde8f08193f8072112f0040f0bd004224a
:1047900083f807210020bde8f0810020bde8f0810a
:1047a0000020bde8f0810020bde8f0810020bde8d8
:0247b000f08196
:020000040000fa
:1047b2002de9f84fd0f800a000238b758369002bf8
:1047c20000f0a9800e460746c36ab3f1ff3f3fd00f
:1047d20000242546a04640f2b51b0ae070b3b9f1a9
:1047e200000f2dd006eb080398750123984400258d
:1047f2000234daf80c30185bd8b12db900f5205329
:104802009bb2b3f5006f12d3c8f1ff09594640ead3
:10481200054004f044f9ff28e0d9b9f1010f0ad9a3
:1048220006eb0803020a9a75d8750223dee70546ed
:10483200dee7c14604e04ff0000901e04ff0000955
:10484200002d18bf4ff00009b144002389f816303b
:1048520000210b462e2405e07018437201311346e5
:104862000b2a0fd05a1cf869c35c202bf7d0052bfa
:1048720008bfe523092aefd10b29edd8701844723d
:104882000131e9e7731800225a72b37dbbb959b1fd
:10489200737a104663b106f1090406f11501082581
:1048a20000204ff0100e28e0481c31443f238b7546
:1048b200304400238375fb691b7b03b97372fb6968
:1048c200db7a3372f8691c3005f062f83060fa69fd
:1048d200d17d937d43ea0123f380fa69517e137ef1
:1048e20043ea0123b380bde8f88f754601f8013f22
:1048f200013014f8013f002bdad09bb22e2bf4d0fa
:10490200a3f1410292b2192af0d8fa69127b154238
:0a491200ecd02033eae7bde8f88f8f
:020000040000fa
:10491c002de9f04f83b00546884606684ff0ff0935
:10492c004c464ff0040e4f464ff6ff7b76e00f29b6
:10493c0058d113f0400f0bd092f80d9003f0bf0339
:10494c002969e96292f80dc0cc4506d03c465fe07f
:10495c009c4218bf3c465bd1f4e7d07e917e51ea75
:10496c0000217cd1f1680846019192f800e02ef00c
:10497c00400e0ef1ff3e0eeb4e010eeb810e3d4c48
:10498c0004f10d0a4ff0010900934b46814603e0f8
:10499c00594564d1544511d014f8011b5018407876
:1049ac00515c41ea0021002bf2d0bef1ff0f56d82a
:1049bc0029f81e100b460ef1010eebe79946009bf1
:1049cc00127812f0400f09d0b9f1000f06d0bef1e9
:1049dc00ff0f44d80022019921f81e20013bdcb2c4
:1049ec00e14615e06cb902f10b01e30143ea540313
:1049fc0012f8010b50fa83f3dcb29142f5d1a145c8
:104a0c0034d04ff0ff33eb6230e03c4600e03c46e4
:104a1c000021284603f09cf8864628bba969d1b131
:104a2c00304604f0fffa8646f0b9ea691378cbb148
:104a3c00d17a01f03f01a971e52be6d02e2be6d0ff
:104a4c0021f02000082814bf0020012040453ff42d
:104a5c006eaf3c46dce7bef1000f07d004e0e14648
:104a6c003c46d5e74ff0040e0023ab61704603b013
:084a7c00bde8f08f189b00005b
:020000040000fa
:104a8400f0b585b004f052fd051ec0f2a580642384
:104a9400524a03fb052393f918300133042b00f227
:104aa4009b80dfe803f093991945030064234b4a84
:104ab40003fb05235b7e002b00f08e80002464261c
:104ac400464b06fb053645ea042005f00bf8013495
:104ad400737ea342f7dc7fe0642000fb05f03f4ccb
:104ae400211891f84c20a12381f85230fe2381f83b
:104af40053300023a1f85430a1f856200122a1f824
:104b0400582081f8513000f1190300f15202c869ac
:104b14000191334900912344224403a901f0e2fcaa
:104b2400012859d1642303fb054502232b7653e066
:104b340064232a4a03fb052393f85130002b4bd0fe
:104b4400642303fb052393f95a3013f1580f24d03f
:104b540013f1610f2bd0012b30d004f089ff0746ed
:104b640064231e4a03fb05235b7e63b10024642691
:104b74001a4b06fb053645ea042004f065f90134b6
:104b8400737ea342f7dc6423144a03fb0525032345
:104b94002b760fb305f084f81ee0642303fb052590
:104ba40000236b7605232b66ff232b7614e0642306
:104bb4000a4a03fb052301225a76cee76423074af7
:104bc40003fb05235a7e01325a76c6e76423034a5f
:104bd40003fb0525fe232b7605b0f0bd3000002035
:044be400b99a00007a
:020000040000fa
:104be8002de9f8430646894604f040ff0546524b36
:104bf80093f8a4312bb100286ad14ff0ff30bde8fb
:104c0800f8834d4cd4f898824ff4d2720021a01842
:104c180004f0beff012384f8a431002d54d10125ee
:104c2800464cc6f30727f2b24ff4d273424903fb4e
:104c38000213996ea16684f8719093f85c30012b89
:104c480052d00023e3664ff4d2713b4b01fb023292
:104c580092f85c3084f8703066662665384a07eb4f
:104c6800c703db00d118d3582366002384f85c30cf
:104c780084f8e6304ff0ff33c4f8dc30c4f8e03095
:104c880084f89931c4f8f480c8680e464ff6fe7e61
:104c98004ff0010cb6f8403001339bb2734514bf96
:104ca800a6f84030a6f840c088b3b6f84010b0f86f
:104cb8004a308b42eed00346d3f89c313bb3b3f86d
:104cc8004a208a42f8d1e5e71d4604f5d27403e08c
:104cd80002254ff00008444604f0e0ff002ca0d164
:104ce8004ff0ff30bde8f8834ff4d273124903fb4d
:104cf8000212936e4033e366002384f8703007ebaa
:104d0800c7030f4a52f833306366a6e71846d0f84f
:104d18009c31002bfad1c0f89c4107ebc702084b25
:104d280003ebc203b3f84030380240ea034028439b
:104d3800a064e064bde8f883bc0c0020600e00208d
:044d4800441e0020e5
:020000040000fa
:104d4c002de9f0478cb004460e46c5b2020ad1b22a
:104d5c00002309938df81c204ff4d27303fb05f349
:104d6c0003eb41134c4a134493f810218df81d208a
:104d7c0003228df8212007a9d3f8f80001f0cdff0c
:104d8c0000287fd000220b928df8286001228df82c
:104d9c002b200aa901f05efd4ff4d27303fb05f33f
:104dac003d4ad35c13b94ff0ff376de04ff4d2732b
:104dbc0003fb0523b3f84a30b3eb144f02d04ff08a
:104dcc00ff3761e0002863d0c27802f00302022aa8
:104ddc0014bf90f806e04ff0000eb0f804c02f4b53
:104dec009b7c012b02d04ff0ff374de02c4b1b78f6
:104dfc00002b38d001232a4f18461901c95d99b3ed
:104e0c0001330a2bf8d14ff000084ff0ff37012186
:104e1c00224b9974b7f1ff3f36d04ff4d2711e4b31
:104e2c0001fb053595f8703095f85c10286ed5f8b7
:104e3c00689095f872a0cdf810a0cdf80cc0cdf804
:104e4c0008e0019295f871200092d9f81c50324676
:104e5c00a847c8f80800b0f1ff3f0dd088f80c60e7
:104e6c00c8f8044010e000200d4b000103eb0008d3
:104e7c00474601211954cae7002388f800304ff047
:104e8c00ff3701e04ff0ff3738460cb0bde8f08734
:104e9c004ff0ff37f8e700bfbc0c0020941f002038
:044eac00f01c0020d6
:020000040000fa
:104eb000f8b590f9e6300f2b00d0f8bd0446d0f8d5
:104ec000d83023b35b69c06c9847d4f8d830f3b1bd
:104ed0004d4b5b7ad4f8dc209a42eedad4f8d83025
:104ee000002bead1484b1b7c012be6d10022464b1c
:104ef0001a7494f8a03133b994f884301bb194f843
:104f00009931ff2b75d001223f4b1a74f8bdd4f8ac
:104f1000dc303d4a567ab34218da5d1cae420fddf2
:104f2000d16801eb03113fe0db68c4f8d830d4f856
:104f3000d8302bb1db6804f17302a16ce06c9847a8
:104f4000c4f8dc50304b5e7ab542c7dbd4f8d830b9
:104f5000002bb2d194f877000028c3d0d4f8e03009
:104f6000b342bfda013394f8792094f8781002f054
:104f700077ffc4f8e000b042b4da234bdb6803eb00
:104f80000010c368c4f8d830db6804f17302a16c68
:104f9000e06c9847a2e7b4f87b700a8a97421fd06a
:104fa00001351946ae42cbdd01f110039a7912f0ba
:104fb000010ff5d012f0200fb6d112f0100fead089
:104fc000b4f87b700a8a9742ead1b4f87d208f8ac0
:104fd000498a3a409142e3d1db68c4f8d830a6e769
:104fe000b4f87d704a8a9742dad1db68c4f8d830c9
:104ff0009de72379002b86d10123237184f8f020cb
:0c50000084f8a0317fe700bf941f00205f
:020000040000fa
:10500c002de9f843044690f86830032b00f29a809f
:10501c00dfe803f0020c1d9390f84230002b00f0f7
:10502c009180012380f86830bde8f8834ff0ff339e
:10503c00c0f8903100f5c8714ff4fa7003f0befb64
:10504c0001287fd0022384f86830bde8f883456ed0
:10505c00d0f8900104f050fc002873d04ff0ff33cf
:10506c00c4f890312b7b13f0c00f0cd1002384f8c3
:10507c0042304ff44072aa834ff480722a8384f832
:10508c006830bde8f8834ff44073ab8394f84a0062
:10509c0003f022fd814694f84b0003f01dfd804681
:1050ac0094f84c0003f018fd074694f84d0003f0fb
:1050bc0013fd06460021d4f88801fff78ffdc4f8d4
:1050cc008c014ff400732b83b9f1000f0ad094f8c4
:1050dc004a30590903f01f03012202fa03f31a4a5a
:1050ec0042f82130b8f1000f0ad094f84b3059092e
:1050fc0003f01f03012202fa03f3134a42f8213092
:10510c0057b194f84c30590903f01f03012202faed
:10511c0003f30d4a42f8213056b194f84d30590939
:10512c0003f01f03012202fa03f3074a42f821306d
:10513c00032384f86830bde8f88390f842300bb94b
:0c514c0080f86830bde8f88300e100e066
:020000040000fa
:10515800002800f09e802de9f0470446d0f82ca0e6
:105168000af1ff3313f1030f00f29180daf80450cb
:1051780095f84360002e72d195f84e30012b2cd053
:105188003746b04656b195f84b30590903f01f031e
:10519800012202fa03f33f4a42f82130b8f1000f26
:1051a8000ad095f84c30590903f01f03012202fa7e
:1051b80003f3384a42f8213057b195f84d30590970
:1051c80003f01f03012202fa03f3324a42f82130a6
:1051d800012385f84e30bde8f087002385f84e306e
:1051e80095f84a0003f07afc814695f84b0003f0e5
:1051f80075fc064695f84c0003f070fc804695f85f
:105208004d0003f06bfc074694f90c30012b2edca3
:1052180010e0a36acaf80c3002e01346a26a9a6248
:1052280094f90c30032b17d0fb23237363690bb15c
:105238002046984795f843304bbbb9f1000fa1d0f1
:1052480095f84a30590903f01f03012202fa03f3c3
:10525800104a42f8213095e707232377eae790f9c7
:105268000c30012b13dd0027b8463e46b946daf864
:105278000c209442cdd0002adcd0936a9c42ccd03a
:10528800002bd7d09a6a9442c8d01346f8e7bde8f5
:08529800f087704700e100e01f
:020000040000fa
:1052a00010b14ff0ff3070474c4b93f8403013b1c2
:1052b0004ff0ff30704730b583b0484b012283f880
:1052c0004e2083f8402083f860204c685c66c87be1
:1052d00083f84900002083f84100986783f8440070
:1052e0008d7a83f84a50cd7a83f84b500d7b83f842
:1052f0004c504d7b83f84d5083f8430022705a6e1a
:10530000937813f0010ffbd10a23d370344b1b6841
:105310000193019b03f01f031f2b08bf05232f4a96
:10532000506e028d92b242ea83130385019bc3f350
:1053300044131f2b08bf1d23284a506e028d92b2c2
:1053400013430385019bc3f38223072b08bf032369
:10535000224a506e028d92b242ea033303850b7ae1
:105360002bb11e4b5a6e137843f0040313701b4b82
:1053700093f84930022b13d0012b17d0174a516ee6
:105380000b7843f002030b70526e937813f0020f08
:10539000fbd10222114b83f86020002003b030bd06
:1053a0000a4600210d4800f049fee7e70b4b5a6e14
:1053b00003f188005062002283f87c200a6ac3f857
:1053c00080205a6e13899bb223f00c03897b03293a
:1053d00008bf43f004039bb21381cfe75c080020b1
:0453e00084008000c5
:020000040000fa
:1053e4002de9f843431e13f1030f00f287800029cf
:1053f40000f08780d0f804e05ffa8ef54ff4d273a2
:10540400434c03fb0543b3f84a30b3eb1e4f7bd147
:105414004ff0ff330b603f4b1b7c012b04d06ff02c
:1054240063073846bde8f8834ff4d27303fb0543a2
:105434001b79002b51d14ff4d27303fb05f3e6180b
:1054440001273771043323440b606ff0570701249d
:10545400304b1c740b68b3f1ff3fe2d0884606461c
:105464002b494ff4d27404fb05f40b19012083f883
:10547400400096f80cc04ff0020983f8ce9083f8f0
:10548400cf000020a3f8d000a3f8d2c0a3f8d40022
:10549400186104f1ce0c8c44c3f80cc05861dff8d9
:1054a40078c0c3f820c0c3f81ce09a6058640c3478
:1054b4009a6ed2682144586d904788b9b068431eeb
:1054c40013f1030fadd84ff4d272114b02fb053325
:1054d4009b6e5b6a98470127a3e76ff06307b6e703
:1054e4004ff4d2730a4a03fb052300221a714ff0ca
:1054f400ff33c8f800306ff0570792e76ff05f078b
:105504008fe76ff05c078ce76ff0570789e700bf00
:0c551400bc0c0020941f00204d43000040
:020000040000fa
:105520002de9f04f87b005468b4614469846002378
:10553000c8f80030019005a903f061fd074630b9b5
:105540006f7c27b92b7c13f0010f04d10727384655
:1055500007b0bde8f08fee686b69f61aa64228bf67
:105560002646002ef3d005f12003029303973de079
:10557000a969019801f0def946e002276f74e6e7b9
:1055800001276f74e3e702276f74e0e701276f7468
:10559000dde7eb69994508d001234a4602999af85c
:1055a000010001f0abfe002851d1c5f81c906b69d9
:1055b000c3f30803c3f50074b44228bf344654b1a2
:1055c000029a13440bf1ff32181913f8011b02f869
:1055d000011f9842f9d1d8f800302344c8f80030b0
:1055e000a3446b6923446b61361b33d06b69c3f3ef
:1055f0000802002adbd1059a5789013f17ea532791
:1056000008d1002bb4d1a8680128b6d9b0f1ff3f6a
:10561000b6d0a861ddf814a0a969504604f0c4f919
:1056200081460028afd0b944740ab2d0baf80a3023
:105630003a199a4288bfdc1b23464a4659469af8d3
:10564000010001f05bfe0028a0d16402c3e701273e
:085650006f747ce7039f7ae709
:020000040000fa
:105658002de9f047d6b00190884606460022027030
:1056680049a901a8fdf75afd074600285dd1499bc5
:105678004a93d3f810a0cdf830a1baf1000f65d045
:1056880045464ff02009002422e00b46591c12f829
:10569800010f0028f9d19a1caa4263d879b156aaf9
:1056a8001344a3f235130df1220c2a46013a13f8dc
:1056b80001ed019800f802e09c45f7d16d1a013d13
:1056c800019b2f225a55ddf830a1baf1000f32d0d4
:1056d80049464aa801f0e5fb00283dd15099499870
:1056e80003f0a2fc002839d15199499803f05cffd6
:1056f8004c9021464aa801f0d4fb88bb21464aa811
:10570800fff708f9034660b95199499803f04cff2f
:10571800504529d021464aa802f01cfa0346002821
:10572800ecd0042b14bf1f460227002333703846e1
:1057380056b0bde8f087a84509d06b1c019a525da8
:1057480006f8012b1d469845f7d8eee74546013d7a
:10575800019b2f225a55f0e70746e6e70746e4e79c
:105768000746e2e71127e0e703a94aa8fff71df873
:105778009df822301bb10df12202234686e7002d49
:065788009dd11127d1e7bd
:020000040000fa
:02578e00704762
:020000040000fa
:105790000022424b1a74424aa3f580639a621a4669
:1057a00092f82c3013f0100ffad109223d4b83f8f8
:1057b00020201a4692f82c3013f0040ffad102225e
:1057c000384b1a771a4692f82c3013f0020ffad1a0
:1057d000344a136913f4807ffbd0334a334b5a6247
:1057e0001a46536813f0080ffbd1314a2f4b9a62c7
:1057f0001a46536813f0100ffbd141222b4bc3f80c
:1058000084201a46d2f8843013f0400ffad0254b8a
:1058100000229a6377225a631a46d36b13f0040f5f
:10582000fbd102221f4b83f830201a46d36b13f0b2
:10583000020ffbd11b4a136c03f00303032bfad1b5
:1058400001221c4b5a711a46d37813f0010ffbd07a
:10585000194a164b1a621a46536813f0040ffbd10b
:105860004122124bc3f8a4201a46d2f8a43013f0f8
:10587000400ffad042220d4bc3f8a8201a46d2f8a6
:10588000a83013f0400ffad00a4b6ff07f421a6134
:1058900044f2ff725a61094a9a617047001400404d
:1058a00080bb01040010004006013000001c0040d5
:1058b00006010100000800400701010057800100b7
:020000040000fa
:1058c00000297bd02de9f0470c464ff0ff312160d5
:1058d000884276d00bb1002a77d047685ffa87f804
:1058e000c7f307214ff4d27707fb08f7f83707eb28
:1058f00041113a4f0f44d0f808903949c97c51b949
:105900003749497c012903d06ff06300bde8f08777
:105910000020334948741d46164604f00bf8314bfd
:105920001b780020002b36d001202e4a83019b5c7f
:105930008bb301300a28f9d14ff0000a04f006f8c1
:10594000274bdb7c13b90122254b5a742368b3f132
:10595000ff3f3ed0caf80c600023caf80830caf8ee
:105960001050caf818a0204bcaf81c30089bcaf87f
:105970000430caf83c704ff4d273184a03fb08286d
:10598000d8f86830db680af108014846984758b9ea
:105990000120bde8f087134b800103eb000a0122d0
